{
  "contractName": "TodoList",
  "abi": [
    {
      "constant": true,
      "inputs": [
        {
          "name": "",
          "type": "uint256"
        }
      ],
      "name": "tasks",
      "outputs": [
        {
          "name": "id",
          "type": "uint256"
        },
        {
          "name": "context",
          "type": "string"
        },
        {
          "name": "completed",
          "type": "bool"
        }
      ],
      "payable": false,
      "stateMutability": "view",
      "type": "function",
      "signature": "0x8d977672"
    },
    {
      "constant": true,
      "inputs": [],
      "name": "tasksCount",
      "outputs": [
        {
          "name": "",
          "type": "uint256"
        }
      ],
      "payable": false,
      "stateMutability": "view",
      "type": "function",
      "signature": "0xbb6a0f07"
    },
    {
      "inputs": [],
      "payable": false,
      "stateMutability": "nonpayable",
      "type": "constructor",
      "signature": "constructor"
    },
    {
      "constant": false,
      "inputs": [
        {
          "name": "_context",
          "type": "string"
        }
      ],
      "name": "createTask",
      "outputs": [],
      "payable": false,
      "stateMutability": "nonpayable",
      "type": "function",
      "signature": "0x111002aa"
    }
  ],
  "bytecode": "0x60806040526000805534801561001457600080fd5b5060408051808201909152600781527f646f207468697300000000000000000000000000000000000000000000000000602082015261005b90640100000000610132810204565b60408051808201909152600781527f646f20746861740000000000000000000000000000000000000000000000000060208201526100a190640100000000610132810204565b60408051808201909152600981527f646f20646973686573000000000000000000000000000000000000000000000060208201526100e790640100000000610132810204565b60408051808201909152600a81527f636c65616e20726f6f6d00000000000000000000000000000000000000000000602082015261012d90640100000000610132810204565b61023e565b6040805160608101825260008054808352602080840186815284860184905291835260018082529490922083518155905180519394919361017b939285019291909101906101a3565b50604091909101516002909101805460ff191691151591909117905550600080546001019055565b828054600181600116156101000203166002900490600052602060002090601f016020900481019282601f106101e457805160ff1916838001178555610211565b82800160010185558215610211579182015b828111156102115782518255916020019190600101906101f6565b5061021d929150610221565b5090565b61023b91905b8082111561021d5760008155600101610227565b90565b6103d88061024d6000396000f3fe6080604052600436106100565763ffffffff7c0100000000000000000000000000000000000000000000000000000000600035041663111002aa811461005b5780638d97767214610110578063bb6a0f07146101c4575b600080fd5b34801561006757600080fd5b5061010e6004803603602081101561007e57600080fd5b81019060208101813564010000000081111561009957600080fd5b8201836020820111156100ab57600080fd5b803590602001918460018302840111640100000000831117156100cd57600080fd5b91908080601f0160208091040260200160405190810160405280939291908181526020018383808284376000920191909152509295506101eb945050505050565b005b34801561011c57600080fd5b5061013a6004803603602081101561013357600080fd5b503561025c565b604051808481526020018060200183151515158152602001828103825284818151815260200191508051906020019080838360005b8381101561018757818101518382015260200161016f565b50505050905090810190601f1680156101b45780820380516001836020036101000a031916815260200191505b5094505050505060405180910390f35b3480156101d057600080fd5b506101d961030b565b60408051918252519081900360200190f35b6040805160608101825260008054808352602080840186815284860184905291835260018082529490922083518155905180519394919361023493928501929190910190610311565b50604091909101516002909101805460ff191691151591909117905550600080546001019055565b600160208181526000928352604092839020805481840180548651600296821615610100026000190190911695909504601f810185900485028601850190965285855290949193929091908301828280156102f85780601f106102cd576101008083540402835291602001916102f8565b820191906000526020600020905b8154815290600101906020018083116102db57829003601f168201915b5050506002909301549192505060ff1683565b60005481565b828054600181600116156101000203166002900490600052602060002090601f016020900481019282601f1061035257805160ff191683800117855561037f565b8280016001018555821561037f579182015b8281111561037f578251825591602001919060010190610364565b5061038b92915061038f565b5090565b6103a991905b8082111561038b5760008155600101610395565b9056fea165627a7a723058209e4ac9ae3bd69b7e5deb8635c585a718fb35d65eb8f2a4ed3542ff71241efe8e0029",
  "source": "pragma solidity ^0.5.0;\n\ncontract TodoList {\n    uint256 public tasksCount = 0;\n\n    constructor() public {\n        createTask(\"do this\");\n        createTask(\"do that\");\n        createTask(\"do dishes\");\n        createTask(\"clean room\");\n    }\n\n    struct Task {\n        uint256 id;\n        string context;\n        bool completed;\n    }\n\n    mapping(uint256 => Task) public tasks;\n\n    function createTask(string memory _context) public {\n        tasks[tasksCount] = Task(tasksCount, _context, false);\n        tasksCount++;\n    }\n}\n",
  "sourcePath": "/Users/dordekremenovic/Desktop/web3/contracts/TodoList.sol",
  "compiler": {
    "name": "solc",
    "version": "0.5.0+commit.1d4f565a.Emscripten.clang"
  },
  "schemaVersion": "3.0.1",
  "updatedAt": "2022-01-02T18:02:01.576Z",
  "devdoc": {
    "methods": {}
  },
  "userdoc": {
    "methods": {}
  }
}