{
  "contractName": "TodoList",
  "abi": [
    {
      "constant": true,
      "inputs": [
        {
          "name": "",
          "type": "uint256"
        }
      ],
      "name": "tasks",
      "outputs": [
        {
          "name": "id",
          "type": "uint256"
        },
        {
          "name": "context",
          "type": "string"
        },
        {
          "name": "completed",
          "type": "bool"
        }
      ],
      "payable": false,
      "stateMutability": "view",
      "type": "function",
      "signature": "0x8d977672"
    },
    {
      "constant": true,
      "inputs": [],
      "name": "tasksCount",
      "outputs": [
        {
          "name": "",
          "type": "uint256"
        }
      ],
      "payable": false,
      "stateMutability": "view",
      "type": "function",
      "signature": "0xbb6a0f07"
    },
    {
      "inputs": [],
      "payable": false,
      "stateMutability": "nonpayable",
      "type": "constructor",
      "signature": "constructor"
    },
    {
      "anonymous": false,
      "inputs": [
        {
          "indexed": false,
          "name": "id",
          "type": "uint256"
        },
        {
          "indexed": false,
          "name": "content",
          "type": "string"
        },
        {
          "indexed": false,
          "name": "completed",
          "type": "bool"
        }
      ],
      "name": "TaskCreated",
      "type": "event",
      "signature": "0x05d0fb833127fc08168556d0e7ca9554fc3f6bc843b3b7d2bf1c35aea6bab660"
    },
    {
      "constant": false,
      "inputs": [
        {
          "name": "_context",
          "type": "string"
        }
      ],
      "name": "createTask",
      "outputs": [],
      "payable": false,
      "stateMutability": "nonpayable",
      "type": "function",
      "signature": "0x111002aa"
    },
    {
      "constant": false,
      "inputs": [
        {
          "name": "id",
          "type": "uint256"
        },
        {
          "name": "completed",
          "type": "bool"
        }
      ],
      "name": "completeTask",
      "outputs": [],
      "payable": false,
      "stateMutability": "nonpayable",
      "type": "function",
      "signature": "0x591744e2"
    }
  ],
  "bytecode": "0x60806040526000805534801561001457600080fd5b5060408051808201909152600781527f646f207468697300000000000000000000000000000000000000000000000000602082015261005b90640100000000610132810204565b60408051808201909152600781527f646f20746861740000000000000000000000000000000000000000000000000060208201526100a190640100000000610132810204565b60408051808201909152600981527f646f20646973686573000000000000000000000000000000000000000000000060208201526100e790640100000000610132810204565b60408051808201909152600a81527f636c65616e20726f6f6d00000000000000000000000000000000000000000000602082015261012d90640100000000610132810204565b6102f6565b6040805160608101825260008054808352602080840186815284860184905291835260018082529490922083518155905180519394919361017b9392850192919091019061025b565b5060408201518160020160006101000a81548160ff0219169083151502179055509050507f05d0fb833127fc08168556d0e7ca9554fc3f6bc843b3b7d2bf1c35aea6bab660600054826000604051808481526020018060200183151515158152602001828103825284818151815260200191508051906020019080838360005b838110156102135781810151838201526020016101fb565b50505050905090810190601f1680156102405780820380516001836020036101000a031916815260200191505b5094505050505060405180910390a150600080546001019055565b828054600181600116156101000203166002900490600052602060002090601f016020900481019282601f1061029c57805160ff19168380011785556102c9565b828001600101855582156102c9579182015b828111156102c95782518255916020019190600101906102ae565b506102d59291506102d9565b5090565b6102f391905b808211156102d557600081556001016102df565b90565b6105cc806103056000396000f3fe6080604052600436106100615763ffffffff7c0100000000000000000000000000000000000000000000000000000000600035041663111002aa8114610066578063591744e21461011b5780638d9776721461014d578063bb6a0f0714610201575b600080fd5b34801561007257600080fd5b506101196004803603602081101561008957600080fd5b8101906020810181356401000000008111156100a457600080fd5b8201836020820111156100b657600080fd5b803590602001918460018302840111640100000000831117156100d857600080fd5b91908080601f016020809104026020016040519081016040528093929190818152602001838380828437600092019190915250929550610228945050505050565b005b34801561012757600080fd5b506101196004803603604081101561013e57600080fd5b50803590602001351515610351565b34801561015957600080fd5b506101776004803603602081101561017057600080fd5b5035610450565b604051808481526020018060200183151515158152602001828103825284818151815260200191508051906020019080838360005b838110156101c45781810151838201526020016101ac565b50505050905090810190601f1680156101f15780820380516001836020036101000a031916815260200191505b5094505050505060405180910390f35b34801561020d57600080fd5b506102166104ff565b60408051918252519081900360200190f35b6040805160608101825260008054808352602080840186815284860184905291835260018082529490922083518155905180519394919361027193928501929190910190610505565b5060408201518160020160006101000a81548160ff0219169083151502179055509050507f05d0fb833127fc08168556d0e7ca9554fc3f6bc843b3b7d2bf1c35aea6bab660600054826000604051808481526020018060200183151515158152602001828103825284818151815260200191508051906020019080838360005b838110156103095781810151838201526020016102f1565b50505050905090810190601f1680156103365780820380516001836020036101000a031916815260200191505b5094505050505060405180910390a150600080546001019055565b6040805160608101825283815260008481526001602081815291849020810180548551600293821615610100026000190190911692909204601f810184900484028301840190955284825292938285019391928301828280156103f55780601f106103ca576101008083540402835291602001916103f5565b820191906000526020600020905b8154815290600101906020018083116103d857829003601f168201915b505050918352505082151560209182015260008481526001808352604090912083518155838301518051919361043093850192910190610505565b50604091909101516002909101805460ff19169115159190911790555050565b600160208181526000928352604092839020805481840180548651600296821615610100026000190190911695909504601f810185900485028601850190965285855290949193929091908301828280156104ec5780601f106104c1576101008083540402835291602001916104ec565b820191906000526020600020905b8154815290600101906020018083116104cf57829003601f168201915b5050506002909301549192505060ff1683565b60005481565b828054600181600116156101000203166002900490600052602060002090601f016020900481019282601f1061054657805160ff1916838001178555610573565b82800160010185558215610573579182015b82811115610573578251825591602001919060010190610558565b5061057f929150610583565b5090565b61059d91905b8082111561057f5760008155600101610589565b9056fea165627a7a72305820b911487dcc8c76b1984cd48b536c273eb42b024595295de99919359fb14114b20029",
  "source": "pragma solidity ^0.5.0;\n\ncontract TodoList {\n    uint256 public tasksCount = 0;\n\n    constructor() public {\n        createTask(\"do this\");\n        createTask(\"do that\");\n        createTask(\"do dishes\");\n        createTask(\"clean room\");\n    }\n\n    struct Task {\n        uint256 id;\n        string context;\n        bool completed;\n    }\n\n    // like array\n    mapping(uint256 => Task) public tasks;\n    event TaskCreated(uint256 id, string content, bool completed);\n\n    function createTask(string memory _context) public {\n        tasks[tasksCount] = Task(tasksCount, _context, false);\n        emit TaskCreated(tasksCount, _context, false);\n        tasksCount++;\n    }\n\n    function completeTask(uint256 id, bool completed) public {\n        tasks[id] = Task(id, tasks[id].context, completed);\n    }\n}\n",
  "sourcePath": "/Users/dordekremenovic/Desktop/web3/contracts/TodoList.sol",
  "compiler": {
    "name": "solc",
    "version": "0.5.0+commit.1d4f565a.Emscripten.clang"
  },
  "schemaVersion": "3.0.1",
  "updatedAt": "2022-01-08T14:22:20.405Z",
  "devdoc": {
    "methods": {}
  },
  "userdoc": {
    "methods": {}
  }
}